:020000040800F2
:100000004008002029020008791600087D10000829
:100010001D160008390900086D24000800000000C2
:100020000000000000000000000000006719000848
:100030007F0D00080000000043180008DD1D0008C7
:10004000430200084302000843020008430200087C
:10005000430200084302000843020008430200086C
:10006000430200084302000843020008430200085C
:100070004302000843020008710A00084302000816
:1000800043020008430200088D07000843020008ED
:10009000430200084302000843020008430200082C
:1000A000430200084302000843020008430200081C
:1000B000430200084302000843020008430200080C
:1000C00043020008430200084302000843020008FC
:1000D0004302000843020008430200087921000897
:1000E00043020008430200084302000843020008DC
:1000F00043020008430200084302000843020008CC
:1001000043020008430200084302000843020008BB
:100110004302000843020008430200083D1E000895
:10012000430200084302000843020008430200089B
:10013000430200084302000843020008430200088B
:10014000430200084302000843020008430200087B
:10015000B50A000843020008010B0008430200082A
:10016000430200084302000843020008430200085B
:10017000430200084302000843020008430200084B
:10018000430200084302000800F002F800F03CF8C7
:100190000AA090E8000C82448344AAF10107DA45E2
:1001A00001D100F031F8AFF2090EBAE80F0013F0F8
:1001B000010F18BFFB1A43F0010318470435000074
:1001C00024350000103A24BF78C878C1FAD8520705
:1001D00024BF30C830C144BF04680C6070470000C1
:1001E0000023002400250026103A28BF78C1FBD840
:1001F000520728BF30C148BF0B6070471FB502F0DF
:1002000057FE1FBD10B510BD00F0AAF81146FFF74C
:10021000F5FF02F04BFB00F0C8F803B4FFF7F2FF64
:1002200003BC02F024F90000094880470948004750
:10023000FEE7FEE7FEE7FEE7FEE7FEE7FEE7FEE796
:10024000FEE7FEE704480549054A064B70470000F3
:10025000E11D00088901000840020020400800203C
:1002600040040020400400207047032A40F2308000
:1002700010F0030C00F0158011F8013BBCF1020FE7
:10028000624498BF11F801CB00F8013B38BF11F868
:10029000013BA2F1040298BF00F801CB38BF00F87F
:1002A000013B11F0030300F02980083AC0F00880F8
:1002B00051F8043B083A51F804CBA0E80810F5E7E0
:1002C000121D5CBF51F8043B40F8043BAFF30080C3
:1002D000D20724BF11F8013B11F801CB48BF11F838
:1002E000012B24BF00F8013B00F801CB48BF00F808
:1002F000012B7047704770477047704710B5203A20
:10030000C0F00B80B1E81850203AA0E81850B1E8CE
:100310001850A0E81850BFF4F5AF5FEA027C24BF84
:10032000B1E81850A0E8185044BF18C918C0BDE87B
:1003300010405FEA827C24BF51F8043B40F8043B44
:1003400008BF7047D20728BF31F8023B48BF11F8F9
:10035000012B28BF20F8023B48BF00F8012B704753
:10036000754600F02BF8AE4605006946534620F06E
:100370000700854618B020B5FFF764FFBDE82040B0
:100380004FF000064FF000074FF000084FF0000B51
:1003900021F00701AC46ACE8C009ACE8C009ACE804
:1003A000C009ACE8C0098D46704710B50446AFF3EC
:1003B00000802046BDE81040FFF72FBF004870477F
:1003C000DC010020174810B50269416846F26663F7
:1003D000914201D3891A02E0134CA21A1144B1FBD5
:1003E000F3F203FB121100EE101ADFED100A104AAF
:1003F000B8EE400A20EE200ADFED0E0A10EE101AC9
:1004000080ED000A914202DD30EE600A06E010EE57
:10041000101A094A914203D930EE200A80ED000AF1
:1004200010BD0000D4000020FFFF01004E547B39B6
:10043000DA0FC940DA0FC940DA0FC9C030B52F480A
:1004400000214268C261C368B3B30446A569646809
:10045000641B012B02D0022B08D010E0AA4201DA63
:10046000012300E00023C3EB434306E0AA4201DD81
:10047000012300E00023A3EB434323448363826111
:1004800000EB8103491C5A6A1A62036CC9B21A4410
:1004900002640629F4D390F83C20002112B1012A0D
:1004A0000BD010E090F83D20521CD2B280F83D20D5
:1004B000036C93FBF2F204E01BE0026C062392FB58
:1004C000F3F2C0E9101290F83D10062902D3012181
:1004D00080F83C1090ED110ADFED090AB8EEC00A71
:1004E00020EE200ADFED070A80EE201A80ED021AC6
:1004F00030BD9FED050A80ED020A30BDD40000201A
:100500000060EA4780FFFF4700000000F8B53A4965
:10051000002000900868401C0860B0F57A5F56D84B
:1005200000EE100AF1EE040A354CB8EE400A04F170
:10053000100020EE200ADFED310A80EE201A9FED38
:10054000310A84ED001A84ED010A84ED030A00F0FB
:1005500083FD2D4800F0FCFC2B492C4891EC030A4C
:1005600000F004FA94ED030A294800F0D2F9284D6E
:100570002649284895EC021A91EC020A01F054F938
:10058000244E94ED000A2449D6ED000A234800F0D9
:100590000DFAD6ED010A204E94ED010A311D2048D6
:1005A00000F004FA95EC021A1E4896EC020A01F0DB
:1005B000CDF91C4894ED041ADFED1B1A90EC020AE9
:1005C00001F0D2F90121022000F05CF8F8BD1748D3
:1005D000552241680161027541F0AA40009072B64F
:1005E00004220021684600F01FFE00F0BDFE62B646
:1005F00002200F498870F8BD3400002000007A46C0
:100600002801002000000000480100203C000020DC
:100610004C000020540000205C0000207C010020E1
:10062000540100204400002000102446D400002083
:100630001C0000203FB51446002200920192029255
:100640006D46039204E000BF11F8013BAB54521C0D
:10065000A242F9DB9DF80010007881420FD1601EA4
:10066000C1B2284600F06AF9291911F8011C81422B
:1006700005D1DDF80200024920F07F4048603FBD0F
:10068000D400002013B50C464FF48061034800F0FD
:1006900059FC2146684601F083FE1CBD0020024043
:1006A000072310B500220949104600BF01EB820460
:1006B000521CD2B220629A42F8D381F83D0081F8F0
:1006C0003C008861C861486010BD0000D400002073
:1006D000C943016070470029816802D041F00101DF
:1006E00001E021F00101816070470000084B10B566
:1006F000D3F8042307490A40D0E900142143D0E984
:100700000240044321431143C3F8041310BD000009
:1007100000200140E030FCFF0029816802D041F454
:10072000807101E021F48071816070470029816847
:1007300002D041F4007101E021F400718160704742
:1007400010B501210C02204601F0ACF82046BDE8AE
:100750001040002101F0A6B8826822F470220A43FA
:1007600082607047826822F440120A4382607047B8
:100770000246002012680A4200D00120704708B5E6
:10078000084428300090006880B208BD10B50E4CB7
:1007900004212046FFF7ECFF012813D10B4908780C
:1007A000012804D0032807D100F0A4FE04E08878D3
:1007B000012801D1FFF7AAFE2046BDE81040042120
:1007C000FFF786BF10BD0000002001401C00002084
:1007D00001238B4041680AB1194300E0994341600D
:1007E0007047000030B542680F4B0C791A400B6817
:1007F00042EA04221343436082680C4B4D791A404D
:10080000D1E9034323438C6844EA4504234313435B
:100810008360C26A097D22F47002491EC9B242EAAD
:100820000151C16230BD0000FFFEFFFCFDF7FFC0BB
:1008300070B5072409290AD9C568A1F10A0606EB93
:100840004606B440A543B3401D43C56007E00569B3
:1008500001EB4106B440A543B3401D430561836BE2
:10086000C3F30154121B921C02EB82041F22A2400C
:100870009343A1400B43836370BD826B491E22F4F6
:10088000401242EA01518163704770B5072409297B
:100890000AD9C568A1F10A0606EB4606B440A5438D
:1008A000B3401D43C56007E0056901EB4106B44054
:1008B000A543B3401D4305611F23072A09D2446B9A
:1008C000521E02EB820293409C4391400C434463CE
:1008D00070BD0D2A09D2046BD21F02EB8202934035
:1008E0009C4391400C43046370BDC46A0D3A02EB13
:1008F000820293409C4391400C43C46270BD816866
:1009000041F0804181607047816841F480018160DD
:10091000704710B504462DED028BB0EE408A01F011
:100920007FFE84ED000AB0EE480A01F0B5FE84EDCA
:10093000010ABDEC028B10BDFEE7000030B5034696
:10094000002080240EE000BF13F8012B504000224D
:10095000C50702D084EA500000E04008521CD2B221
:10096000082AF5D3491EC9B2EED230BD70EE811A05
:10097000B6EE002A70EEC10A9FED0B1A01EEC20A14
:10098000F0EE001A60EE810A20EE212AB0EE080A8D
:1009900060EEA10AC2EE002A80EE801AC0ED002AA5
:1009A00080ED011A70470000D7B35D3F30EE600A5A
:1009B000D0ED000A90ED011A60EE800AB5EEC01A83
:1009C000F1EE10FA02D19FED190A16E021EE000AAD
:1009D00090ED071A31EE000A90ED061AB4EEC01A37
:1009E000F1EE10FA06D390ED051AB4EEC01AF1EE4E
:1009F00010FA02DD80ED071A01E080ED070A90EDA4
:100A0000070A30EE200A81ED000AD0ED040AB4EEA8
:100A1000E00AF1EE10FA06DAD0ED030AB4EEE00ACD
:100A2000F1EE10FA01D2C1ED000A7047000000009B
:100A3000044A01238340106809B1184300E0984339
:100A4000106070470074004030B5084C236840F6D1
:100A5000FE7282409343D1E900252A43D1E9025135
:100A60000D432A4382401A43226030BD0074004087
:100A700070B50D4C4FF0C0552946204600F01EF9C8
:100A8000002810D02946204600F05CF800212046BE
:100A900000F06EF8012240F22661044801F0F1FBFB
:100AA00003490120C87070BD5860024000480040F2
:100AB0007000002070B50F4D0F4C2946204600F005
:100AC000FDF8002814D00D49012008702946204661
:100AD00000F038F80021204600F04AF808212046AE
:100AE00000F04BF92046BDE87040012100F040B80D
:100AF00070BD00000008002088640240280000202B
:100B000070B50D4C4FF020552946204600F0D6F820
:100B1000002810D00021204600F02AF807490020C4
:100B200048702946204600F00DF8BDE8704040218D
:100B3000034801F06BBB70BDB86402407000002038
:100B400000100140074A904201D2074801E00548E1
:100B50001038064A8B0001EA020101D5C1607047D6
:100B60008160704710640240006002407D0F7D0F7D
:100B70000029016802D041F0010101E021F00101EA
:100B8000016070472DE9F043016821F00101016027
:100B90000021016041608160C160016121214161EA
:100BA0003C493C4A3D251039904202D18D60BDE858
:100BB000F083384A4FF474661832904201D18E6047
:100BC000F5E7344A4FF474173032904201D18F6008
:100BD000EDE7304A4FF0746C4832904202D1C1F8D0
:100BE00008C0E4E72B4B2C4A6033984201D1CA601D
:100BF000DDE7284C294B7834A04201D1CB60D6E701
:100C0000DFF89080264C08F19008404501D1CC6077
:100C1000CDE7DFF880804FF03D5908F1A808404546
:100C200002D1C1F80C90C2E71E49DFF8788008397C
:100C3000404501D10D60BAE71A4D1835A84201D1DF
:100C40000E60B4E7174D3035A84201D10F60AEE712
:100C5000144D4835A84202D1C1F800C0A7E7114D94
:100C600010496035091FA84201D10A609FE70D4A6B
:100C70007832904201D10B6099E70A4A9032904253
:100C800001D10C6093E7074AA83290428FD1C1F896
:100C900000908CE7106002403D000020400F0020D3
:100CA00000003D2010640240014600200968C90789
:100CB00000D001207047406880B270470246094B5F
:100CC00000209A4201D2084A01E0064A103A8B00FD
:100CD00001D5526800E01268044B1A400A4200D065
:100CE0000120704710640240006002407D0F7D0FBC
:100CF0000B0607D5436912B143F0800301E023F0EE
:100D000080034361802908D0002A026801F01E0197
:100D100001D00A4300E08A430260704730B503689F
:100D2000124ACC6813400A682243D1E905452C4396
:100D30002243CC6922430C6A22434C6A22438C6AC8
:100D400022434C6B22438C6B22431A43026042695C
:100D500022F00703D1E90B2422431A4342610A69B6
:100D600042604A6882608968C16030BD3F801CF083
:100D70000AB101617047C1607047416070477047B8
:100D800001F030BB70B5FFF71DFB2E4C04F12000C5
:100D900084ED030A00F0DCF804F120012A4891EC0C
:100DA000030AFFF7E3FD284894ED030A1030FFF72C
:100DB000B0FD25481830A0F11C05D5ED061A95EDBB
:100DC000051AD5ED020A95ED010A00F02DFD05F199
:100DD0001C0694ED000AD6ED000A05F124011B481B
:100DE000FFF7E4FDD6ED010A94ED010A05F12801B3
:100DF0001748FFF7DBFD05F10C00D5ED061A95ED60
:100E0000051AD5ED0A0A95ED090A00F09FFD94ED4B
:100E1000041ADFED101AD5ED040A95ED030A00F06F
:100E2000A3FD01210220FFF72DFC0B48D4ED020A9F
:100E300090ED021A04F1200090ED000ABDE8704028
:100E400001F004BB280100203C0000207C010020B0
:100E50005401002000102446D400002003489FEDD8
:100E6000020A80ED020A70470000000028010020FD
:100E7000F0B50023012403270D6804FA03F215409E
:100E8000954242D1D0F800C05E0007FA06F52CEA80
:100E9000050CC0F800C091F804C0D0F800E00CFACE
:100EA00006FC4CEA0E0CC0F800C091F804C0BCF17E
:100EB000010F02D0BCF1020F1FD1D0F808C02CEAFC
:100EC000050CC0F808C091F805C0D0F808E00CFA8D
:100ED00006FC4CEA0E0CC0F808C0D0F804C02CEA9E
:100EE000020CC0F804C0426891F806C00CFA03FC7A
:100EF0001FFA8CFC42EA0C024260C268AA43C2603C
:100F0000CA79C568B2402A43C2605B1C102BB3D3B8
:100F1000F0BD4B07DB0E9A40C90810B500EB81000D
:100F2000016A0F249C40A1430162016A11430162DE
:100F300010BD0246002012690A4200D0012070470D
:100F4000418370470183704742694A40426170475C
:100F50002DE9F0473749002506460978DFF8D880A3
:100F6000DFF8D890DFF8D8A0364F2C46284607295E
:100F700043D2DFE801F0421D303004041D0014218B
:100F80004046FFF7FCFB0146B9F80000401A05B2E5
:100F900018214046FFF7F3FBBAF80010081A04B214
:100FA0001C214046FFF7EBFB3988081A00B224E009
:100FB00018214046FFF7E3FBBAF80010081A04B204
:100FC0001C214046FFF7DBFB3988081A00B22118C4
:100FD00049420DB211E014214046FFF7D0FBB9F8A9
:100FE0000010081A05B21C214046FFF7C8FB3988DB
:100FF000081A00B2291849420CB200EE105AF8EE55
:10100000C00A9FED110A60EE800AC6ED000A00EEEC
:10101000904AF8EEE00A60EE800AC6ED010A00EEA2
:10102000900AF8EEE00A20EE800A86ED020ABDE89A
:10103000F087000038000020002001400A00002056
:101040000C0000200E000020C20DDC3B014840686F
:10105000704700006800002006494988DFED060A55
:1010600000EE101AB8EE400A20EE200A80ED000AC9
:101070007047000064000020510AA53CFEE70029EB
:10108000018802D041F4806101E021F48061018097
:10109000704702460020938A128B43EA024323F0F2
:1010A0007F42914300D101207047C943818270473C
:1010B0000029018802D041F0010101E021F0010185
:1010C000018070470D4910B5884202D101214C05BD
:1010D0000AE00B49884202D101218C0504E009494C
:1010E00088420AD10121CC05204600F0C3FB2046EE
:1010F000BDE81040002100F0BDBB10BD0054004011
:1011000000580040005C00400029018802D041F4F2
:10111000807101E021F4807101807047002901880D
:1011200002D041F4007101E021F4007101807047A8
:101130000CB50246002000920A0F21F07F41019277
:1011400002D0009A143202E0009A090C1832009280
:1011500012680A4200D001200CBD00007FB5044691
:1011600080880D4620F03F06684600F0A7FB27491F
:101170000298B0FBF1F189B20E43A680228822F0DA
:1011800001022280224B2A689A421BD85200B0FBEF
:10119000F2F080B2042800D20420491C2184A083EC
:1011A000208840F00100208021884FF6F530014072
:1011B000A8886A89104308432080A88929890843A0
:1011C00020817FBDEB88A3F53F46FF3E0BD002EBAD
:1011D000C20303EB0212B0FBF2F080B240F4804095
:1011E000020506D007E002EB4202B0FBF2F080B24B
:1011F000F6E740F001004FF4967251434FF47A72D3
:10120000B1FBF2F140F40040C7E7000040420F009C
:10121000A086010012B141F0010101E001F0FE01E0
:1012200001827047018270472DE9F041064611F0B6
:1012300007000C4602F00701C0F108074FEAD2058B
:10124000884611D08DB1D01BC0B2C50800F0070888
:1012500087B33A462146304600F032F800F084F871
:10126000E019C4B23E4425E05DB90A4610E0082208
:101270002146304600F024F800F076F80834E4B255
:1012800008366D1EEDB2F2D2B8F1000016D002465B
:101290002146304600F014F8BDE8F04100F064B893
:1012A00008222146304600F00BF800F05DF80834C3
:1012B000E4B208366D1EEDB2F2D2E5E7BDE8F0818A
:1012C0002DE9F843254C1546884606464FF400376D
:1012D00039462046FFF72CFF0028F9D1012120468E
:1012E000FFF712FF1E4F20463946FFF7D2FE0028B7
:1012F000F9D00022A0212046FFF78CFF194F20468D
:101300003946FFF7C6FE0028F9D014481830008887
:10131000ADF8000041462046FFF784FF114FBF1E85
:1013200039462046FFF7B5FE0028F9D00D4FBF1C07
:101330006DB131782046FFF775FF761C394620469F
:10134000FFF7A7FE0028F9D06D1EEDB2F0E72046AA
:10135000BDE8F8430121FFF7E1BE0000005800405E
:10136000010003008200070038B50F4C00202080E8
:101370000D4D143D01212846FFF7C6FE2088ADF82B
:1013800000000022A0212846FFF744FF20888007A4
:10139000F0D506492846FFF788FE2846BDE83840C4
:1013A0000121FFF7BBBE00001458004000040010EC
:1013B0000648054904220160828008220161828278
:1013C00001621021818470470010024084000020D7
:1013D000002101818172C17270472DE9F0410446FC
:1013E000807900250227012648B1012827D002284C
:1013F0002AD0032801D1A571E672BDE8F081A18849
:101400002068FFF796FD30B1A1882068FFF791FDB5
:10141000012802D002E0A67100E0A5712089C82849
:1014200001D9277306E0801F2C2803D2A07A012857
:1014300000D126732046BDE8F041FFF7C9BFA77170
:10144000A672E5722581D8E7A1882068FFF771FDB3
:1014500040B1A1882068FFF76CFD0128CDD10320A1
:10146000A071CAE7A7712089401C2081C5E7000050
:1014700010B5FFF7EBFD00280ED0FFF7E7FD074C96
:101480002168401A0A2807D9FFF7E0FD2060BDE86F
:1014900010400348FFF7A1BF10BD0000040000206A
:1014A0008400002002210148FFF74CBD00100240DB
:1014B00002210148FFF744BD0010024010B5FFF7BC
:1014C000C5FD002810D0FFF7C1FD084C2168401A67
:1014D000B0F5FA7F08D9FFF7B9FD2060BDE81040EC
:1014E00001210348FFF730BD10BD0000240000209B
:1014F00000100240FFF746BC2DE9F04140482DEDB9
:10150000028BFFF7A9FD3F4C2078032801D1FEF79D
:1015100095FF2078002701253B4E4FF0040807284F
:1015200011D2DFE800F00414222857106900307B44
:10153000012808D137732079012804D1A07808B197
:10154000022057E02570BDEC028BBDE8F0812079C8
:101550000128F8D1A07820B10228F4D184F80080C5
:10156000F1E700F067F8A570EDE700F063F8207888
:10157000607003203EE0224DE078103D23499FED4E
:10158000248A012801D048B112E0D1ED020A95ED7C
:10159000020A291D1F4800F0DFFB07E0C868012888
:1015A0000AD0BFEE000A00BF85ED010A85ED008A72
:1015B000307B012803D007E0B7EE000AF4E7377369
:1015C0002078607084F80080BDEC028BBDE8F041AB
:1015D000FFF76EBF00F002F9FFF740FCFFF760F87D
:1015E000FFF760FF4FF480610B48FFF7A9FC2078FC
:1015F000607006202070A6E760702770A3E70000E7
:10160000380100201C00002084000020D4000020AD
:1016100000000000A401002000140240FEE70000CA
:1016200003480121C1700171002101707047000061
:101630001C00002010B501210220FFF723F800F064
:1016400099FA4FF480610848FFF77CFC00F0C6F877
:10165000064802219FED060AC160064981ED020A93
:101660004168C161816110BD00140240D4000020B6
:1016700000007AC4280100207047000030B50F2216
:10168000C47801780123FCB1144C246801F1E021F5
:1016900004F4E064C4F5E064C4F30724C4F1040571
:1016A000E2404478AC408578154025432A0181F812
:1016B0000024007800F01F018B404009800000F1F9
:1016C000E020C0F8003130BD01F01F008340480920
:1016D000800000F1E020C0F8803130BD0CED00E06A
:1016E0000249084302490860704700000000FA05FB
:1016F0000CED00E09FED0E0ADFED0E0A80ED070A0B
:10170000C0ED000ADFED0C0AC0ED010A80ED020A0F
:1017100080ED080A9FED090ADFED090A80ED030A52
:10172000C0ED040A80ED050AC0ED060A704700000E
:10173000000000006F6CCE3F210D473D000000C24D
:10174000000000429FED0E0ADFED0E0A80ED070A51
:10175000C0ED000ADFED0C0AC0ED010A80ED020ABF
:1017600080ED080A9FED090ADFED090A80ED030A02
:10177000C0ED040A80ED050AC0ED060A70470000BE
:10178000000000006F6CCE3F210D473D000000C2FD
:10179000000000429FED0E0ADFED0E0A80ED070A01
:1017A000C0ED000ADFED0C0AC0ED010A80ED020A6F
:1017B00080ED080ABAEE040A80ED030AF2EE040A8C
:1017C000C0ED040A80ED050AC0ED060A704700006E
:1017D000000000009400823B44FF0D3809489FED53
:1017E000080A80ED070A80ED080A283080ED070A14
:1017F00080ED080A283080ED070A80ED080A70475E
:10180000000000005401002000B50648FFF79AFFD1
:1018100004482830FFF76EFF02485DF804EB5030B3
:10182000FFF7B8BF5401002020EE012A00EEA12AE4
:1018300060EE810A40EE610A80ED002AC0ED010AE7
:1018400070477047044A0029116801D0014300E045
:10185000814311607047000030380240044A00297B
:10186000116801D0014300E081431160704700001E
:1018700040380240044A0029116801D0014300E0C9
:10188000814311607047000020380240044A00295B
:10189000116801D0014300E08143116070470000EE
:1018A00044380240044A0029116801D0014300E095
:1018B00081431160704700002438024070B5204A0F
:1018C0001168204C11F00C0104D06610042903D0DB
:1018D000082903D004601BE0066019E01849091FBD
:1018E0000B68C3F380550B6803F03F0315B1B6FBDB
:1018F000F3F301E0B4FBF3F30C680968C4F3881454
:101900006343C1F30141491C4900B3FBF1F101609C
:1019100011680F2303EA11110B4B5C5C0168E14075
:1019200041601468072505EA94241C5D21FA04F43B
:101930008460126805EA52329A5CD140C16070BD81
:10194000083802400024F4007400002021EE002A30
:1019500021EE800A01EEE02A01EE200A80ED002A45
:1019600080ED010A704770470020DFED7A2AF5EE1E
:10197000C00AB0EE623AB0EE622AF1EE10FA00DD73
:101980000120F0EE603A9FED744AB6EE005A50EE38
:10199000043A63EE853AF5EEC03AF1EE10FA00DD56
:1019A000801CF0EE603AB0EE404ADFED6C4A54EE37
:1019B000243A63EE853AF5EEC03AF1EE10FA00DD16
:1019C000001DFFEE086A664920EE264ADFED654AF3
:1019D000B7EE087A60EE073A00EEA44A40EEA43A69
:1019E000DFED5E4A60EEA44A24EEA16ADFED5E4AB6
:1019F00060EEA44AF0EE645A40EE664ADFED566AA5
:101A000040EE475A072860EEA60A60EEA16AC1EED2
:101A1000810A17D2DFE800F01604070A0D10130040
:101A200002220A7015E006220A7017E001220A70ED
:101A300019E004220A701BE003220A701DE005224F
:101A40000A701FE006281DD2DFE800F01C03080D15
:101A5000121720EE840A60EEA33A17E020EEA30AE4
:101A6000C6EE013A12E0C6EE813A20EEA40A0DE07D
:101A700086EE010A60EE843A08E086EE810A60EEA6
:101A8000A53A03E020EEA50A60EEA43A70EE230A20
:101A9000F4EEE10AF1EE10FA09DD80EE201AB0EE64
:101AA000410A30EE231AC3EE810AF0EE603AB5EE39
:101AB000001A70EE230A072871EEE00A60EE810A30
:101AC000B0EE601A00EE051AB0EE410A03EE851A78
:101AD00028D2DFE800F02704090E151A2100B0EE25
:101AE000403AF0EE602A08E0B0EE603AF0EE412AAB
:101AF0000FE0B0EE603AF0EE402AB0EE412A11E07D
:101B0000B0EE413AF0EE402A0AE0B0EE413AF0EE93
:101B1000602AB0EE402A05E0B0EE403AF0EE412AED
:101B2000B0EE602A1148BCEEC30A80ED003AC0ED69
:101B3000012A80ED022A0E4810EE101A4163BCEE15
:101B4000E20A10EE101A8163BCEEC20A10EE101AFF
:101B5000C163704700000000D7B3DD3FD7B3DDBFDE
:101B600038000020D7B35D3FD7B35DBF1C01002014
:101B7000000001402DE9F041484E40F207470022A5
:101B800039463046FEF724FE454C0025294665803F
:101B9000A580E580A560E56030462561FEF7E2FDA1
:101BA00003213046FEF769FE052301220821304655
:101BB000FEF73EFE0523022206213046FEF738FEE0
:101BC0000322052311463046FEF732FE012130463E
:101BD000FEF781FD04213046FEF77AFD3046FEF720
:101BE00093FE258004213046FEF7C2FD0028F9D07F
:101BF00014213046FEF7C3FDA1680844A0601821F7
:101C00003046FEF7BCFDE1680844E0601C21304628
:101C1000FEF7B5FD21690844206104213046FEF736
:101C200057FD3046FEF770FE2088401C80B22080B1
:101C30001028D7D3A068032100096080E06800095C
:101C4000A08020690009E0803046FEF716FE0023E0
:101C5000012208213046FEF7EBFD00230222062177
:101C60003046FEF7E5FD0322002311463046FEF71D
:101C7000DFFD00213046FEF76FFD4FF48011304646
:101C8000FEF770FD012239463046FEF7A1FD3046D1
:101C9000BDE8F0410121FEF71EBD0000002001401B
:101CA000080000200CB500202749019000900A6828
:101CB00042F480320A604FF4A0430A6802F4003212
:101CC0000092019A521C0192009A12B9019A9A420A
:101CD000F3D10A68920334D5012000901A484030AD
:101CE000026842F0805202601848026842F44042A2
:101CF00002601548083002680260026842F400423F
:101D00000260026842F4A0520260031F104A1A6087
:101D10000A6842F080720A600A689201FCD50D4A96
:101D200040F205711160016821F003010160016852
:101D300041F0020101600168C1F381010229FAD179
:101D40000CBD00900CBD0000003802400070004047
:101D500008544007003C024030EE600AD0ED000A13
:101D600090ED011A60EE800AB5EEC01AF1EE10FA9D
:101D700002D19FED190A16E021EE000A90ED071A34
:101D800031EE000A90ED061AB4EEC01AF1EE10FA28
:101D900006D390ED051AB4EEC01AF1EE10FA02DD8A
:101DA00080ED071A01E080ED070A90ED070A30EE9A
:101DB000200A81ED000AD0ED040AB4EEE00AF1EE4B
:101DC00010FA06DAD0ED030AB4EEE00AF1EE10FAEA
:101DD00001D2C1ED000A704700000000704700000A
:101DE000124810B5016841F47001016010480168A3
:101DF00041F0010101600E4A0021083211600268C1
:101E00000C4B1A400260031D0B4A1A60026822F450
:101E10008022026006480C300160FFF743FF03494F
:101E20004FF000608039086010BD000088ED00E0D0
:101E300000380240FFFFF6FE1030002410B50D4CB4
:101E40000121204600F048F801280DD10A49087800
:101E5000401CC2B20A70022A04D3002008704868ED
:101E6000401C4860FFF748FB2046BDE810400121B8
:101E700000F018B8001400406800002010B50A886F
:101E80004B88CC881A438B8823431A430B891A4307
:101E90004B8989891A430A43A0F8442010BDC943DD
:101EA00001827047C943018270470029018802D02E
:101EB00041F0010101E021F001010180704700299A
:101EC00030F8441F02D041F4004101E0C1F30E019B
:101ED000018070478182704702460020138A9289F0
:101EE0000B4202EA010202D0002A00D00120704712
:101EF000002A828901D00A4300E08A438281704728
:101F000030B5028C22F001020284028C8388048B9B
:101F100022F0020224F073050C882C438D891543AE
:101F20004A882A430C4DA84202D00C4DA8420DD13C
:101F300022F00805CA8923F440732A4322F00405DD
:101F40008A882A430D8A1D434B8A2B43838004834E
:101F500089684163028430BD0000014000040140F3
:101F6000028B22F008020A430283704770B5028C8C
:101F700022F010020284028C8488038B0D8823F4E3
:101F8000E6464FF6FF7303EA052535438E8922F0B6
:101F9000200203EA061616434A8803EA0212324375
:101FA000104EB04202D0104EB04215D122F0800641
:101FB000CA8924F4406403EA0212324322F0400644
:101FC0008A8803EA021232430E8A03EA860626430F
:101FD0004C8A03EA840434438480058389688163DE
:101FE000028470BD0000014000040140028B4FF6E6
:101FF000FF7322F4006203EA012111430183704759
:1020000070B5028C22F480720284028C8488838BE7
:102010000D8823F073031D4322F400738E894FF65D
:10202000FF7202EA06261E434B8802EA032333436B
:10203000104EB04202D0104EB04215D123F40066CB
:10204000CB8924F4405402EA0323334323F480660B
:102050008B8802EA032333430E8A02EA06162643DC
:102060004C8A02EA04143443848085838968C163FE
:10207000038470BD0000014000040140828B22F007
:1020800008020A438283704770B5028C22F48052A2
:102090000284048C8288838B0D8823F4E6464FF6F5
:1020A000FF7303EA0525354324F400568C8903EABF
:1020B000043434434E8803EA06362643084CA042D3
:1020C00002D0084CA04205D122F480440A8A03EAD7
:1020D000821222438280858389680164068470BDF0
:1020E0000000014000040140828B4FF6FF7322F490
:1020F000006203EA012111438183704730B50288F1
:10210000164B174C98420DD0A0420BD0B0F1804F27
:1021100008D0144DA84205D0134DA84202D0134D4B
:10212000A84203D122F070054A882A43104DA842E4
:1021300006D0104DA84203D022F440750A892A43E4
:1021400002804A68C2620A880285984201D0A04291
:1021500001D1897A01860121818230BD00000140D0
:10216000000401400004004000080040000C004052
:10217000001000400014004070B51E4D40F2244194
:10218000284600F05FF81C4CF0B11C4E0021304690
:10219000FEF7EEFC3046FEF78EFDC0F11000C2B235
:1021A00022701749A01CFEF745FA16493046FEF783
:1021B000C9FC10213046FEF7E0FD01213046FEF754
:1021C000D7FC284600F0CCF840F22771284600F0F2
:1021D00032F800280DD1E070024640F22661284610
:1021E00000F04FF8BDE870404FF480610648FEF7FC
:1021F000A7BE70BD0048004070000020286002406B
:10220000CC0100200008001000200240C9430180DA
:1022100070470029818902D041F4005101E021F486
:10222000005181817047002A828A01D00A4300E070
:102230008A43828270470246002012880A4200D0F8
:102240000120704730B501F01F0201240025C1F3C1
:10225000421304FA02F2012B0FD0022B0FD0838A13
:102260004FEA11210088134204FA01F400EA040045
:1022700001D000B10125284630BD8389F0E7038AEB
:10228000EEE710B5C1F3421301F01F040121A14094
:10229000012B07D0022B07D01430002A026805D08A
:1022A0000A4304E00C30F8E71030F6E78A43026096
:1022B00010BD00007FB50446008A0D4620F4405151
:1022C000E88808432082A08941F20C618843A988EC
:1022D0002A8911436A8902431143A181A08A20F40B
:1022E0004071A8890843A0826846FFF7E7FA1A48B8
:1022F000844202D01948844201D1039800E0029838
:10230000A189090400EBC00101EB0010296801D587
:10231000490000E08900B0FBF1F26420B2FBF0F16B
:1023200009010B096FF018056B4302EB8302A389C7
:102330001D044FF0320306D503EBC202B2FBF0F0EE
:1023400000F0070005E003EB0212B2FBF0F000F032
:102350000F00084320817FBD0010014000140140A0
:102360008088C0F30800704770B50B4A0C4651785E
:102370000029FDD101215170084D01460022284657
:10238000FEF7F6FCA1B22846FEF7F7FC2846BDE8AA
:1023900070400121FEF7ECBB70000020B8640240E1
:1023A00070B50C460D49C9780029FDD101460B488E
:1023B0002246801CFDF759FF0849094D0022891C5F
:1023C0002846FEF7D5FCA1B22846FEF7D6FC2846E3
:1023D000BDE870400121FEF7CBBB0000700000207B
:1023E0005860024015480178012925D1002101706B
:1023F000011D0878AA281FD14878FF281CD1C87869
:10240000012819D0022817D191ED010A0C4910EECC
:10241000100A884210DC10EE100A0A4988420BD8D4
:10242000BCEEC00A10EE100A80B200EE100A064898
:10243000B8EE400A80ED020A704700002800002034
:1024400000803B4500803BC5280100200648002154
:1024500080EC030A01734173802181737F21C17372
:102460001021FFF781BF000094000020FEE77047B5
:102470002DE9F04301210D029DB02846FFF706FA31
:1024800001210846FFF7DEF901210220FFF7DAF902
:1024900001218805FFF7D6F95C4E3046FEF772FB46
:1024A0005B4802905B480024CDE900400227CDE95B
:1024B00003470015CDE90540400007908000CDE9B5
:1024C00008050AA90001012581E831000D9469463B
:1024D00030460E94FEF722FC01213046FEF748FB01
:1024E00003264820DFF830818DF840600F908DF88A
:1024F00043400FA94046FEF7BBFCDFF820918DF862
:1025000040600F958DF843400FA94846FEF7B0FC98
:102510008DF840600F978DF843400FA94846FEF7AD
:10252000A7FC8DF840600F958DF843400FA94046F9
:10253000FEF79EFCFEF704F92804CDE91804179471
:102540001A9417A8FEF7D2F8324E8DF848508DF83D
:1025500058704C3E8DF8495015941494139411A959
:1025600030461194FEF73EF903213046FEF785F917
:1025700000213046FEF7F0F829053046FEF7F2F864
:1025800001231A4608213046FEF752F901230222A0
:1025900006213046FEF74CF903220123114630464E
:1025A000FEF746F901231A4600213046FEF76DF981
:1025B0000123022209213046FEF767F90121304646
:1025C000FEF7B4F801213046FEF7A6F8012240F2EA
:1025D00007413046FEF7FCF804213046FEF778F854
:1025E00001213046FEF777F83046FEF788F91220D1
:1025F0008DF86C008DF86D508DF86E408DF86F5031
:102600001BA8FFF73BF81DB0BDE8F0831064024043
:10261000640000204C200140000002400004024001
:102620009FED1A1AF5EE000A40EE010ABDEEE00A2F
:10263000F5EEC00A10EE100AF1EE10FA00D2401EBC
:1026400000EE100A1349F7EE001AB8EEC00A30EE99
:10265000C00ADFED0F0A20EE200AFCEEC00A10EEE1
:10266000900AC0F3080000EE900A01EB8000F8EE3B
:10267000600A90ED011A70EE600A90ED000A71EEAA
:10268000E01A21EE800A00EE810A704783F9223EAB
:1026900000000044BC2E0008DFED190AB5EEC00AA8
:1026A00060EE200ABDEEE01A11EE100AF1EE10FA0B
:1026B00000D2401E00EE100A1349F7EE001AB8EEE1
:1026C000C00A30EEC00ADFED0F0A60EE200ABCEE51
:1026D000E00A10EE100AC0F3080000EE100A01EB49
:1026E0008000B8EE400A90ED011A70EEC00A90ED3D
:1026F000000A71EEE01A21EE800A00EE810A7047AE
:1027000083F9223E00000044BC2E000830B50121B0
:1027100087B00846FFF796F801214807FFF79EF8B3
:102720003020049003208DF8140001218DF817103B
:102730008DF8150004A90E48FEF79AFB0024022527
:1027400000946946204603950194FEF77DF90094B4
:102750006946102003950194FEF776F901211020B7
:10276000FEF766F901210020FEF762F907B030BDDF
:10277000000002402DE9FC4701211020FFF762F81C
:1027800001212020FFF75EF801210802FFF75AF827
:10279000012403208DF8044000268DF806608DF892
:1027A0000500DFF8609000908DF8074069464846C4
:1027B000FEF75EFB144FA502694638460095FEF70A
:1027C00057FB8020DFF84480009069464046FEF7C2
:1027D0004FFB694640460095FEF74AFB1C200090DF
:1027E0008DF804608DF8074069464846FEF740FBC7
:1027F00003214846FEF7A6FB29463846FEF7A0FB14
:10280000BDE8FC8700100240001402400020024096
:1028100030B5012187B08805FFF720F8012180201D
:10282000FFF710F81E4D042211462846FEF771FBF3
:10283000042205212846FEF76CFB022130208DF88A
:10284000141004908DF8151001208DF81600002446
:102850008DF8174004A92846FEF70AFB114D2846BB
:10286000FEF730FC10480090ADF804404BF6FF70C6
:10287000ADF80600ADF808402815ADF80A000001D3
:10288000ADF80C0069462846FEF768FC0121284691
:10289000FEF7F5FB01212846FEF70AFC07B030BD24
:1028A000001C024000580040A08601002DED028B64
:1028B00072B64FF4A060FEF713FFFFF75BFFFFF760
:1028C000A7FFFFF7D5FD00F02DF900F035F900F076
:1028D0000FFAFFF71BFFFEF76BFDFEF7A1FEFEF7F9
:1028E00093FF62B69FED068A064C00BF84ED008A16
:1028F000FEF7E4FDFEF7BCFDFEF742FAF6E7000046
:1029000091644C3C000000202DE9F04301218FB080
:102910000846FEF7BBFF01210846FEF793FF0121A1
:102920000220FEF78FFFDFF8948101220821404644
:10293000FEF7EFFA012209214046FEF7EAFA0122EA
:102940000A214046FEF7E5FADFF8749101220D21D5
:102950004846FEF7DEFA01220E214846FEF7D9FA74
:1029600001220F214846FEF7D4FA02268DF818609E
:1029700003274FF4E0608DF81970002405908DF85E
:102980001A4001258DF81B5005A94046FEF770FA44
:102990008DF818604FF460408DF8197005908DF82F
:1029A0001A408DF81B5005A94846FEF761FA280326
:1029B0008DF8186005908DF819708DF81B5005A9D9
:1029C0004846FEF755FAADF82C402020ADF82E0011
:1029D00041F282402E02DFF8EC800C90ADF83460BA
:1029E0008DF836400BA94046FFF788FB7020ADF804
:1029F0000000ADF80C40ADF8104004270294ADF88B
:102A00000250ADF80470ADF80E40ADF812406946C2
:102A10004046FFF775FA69464046FFF7A7FA694650
:102A20004046FFF7EDFA08214046FFF799FA0821E2
:102A30004046FFF7DBFA08214046FFF71FFB602006
:102A4000ADF80000ADF810400297ADF80C40ADF8BD
:102A50000250ADF80440ADF8124069464046FFF719
:102A600013FB08214046FFF73FFBA802ADF81E000C
:102A70004000ADF81C00ADF820602A20ADF822001F
:102A8000ADF82440ADF82640ADF8284007A94046EF
:102A9000FFF7F4F901214046FFF71CFA01214046F7
:102AA000FFF7FDF901214046FFF709FA01214046F1
:102AB000FFF7FBF90FB0BDE8F08300000000024013
:102AC00000040240000001407FB50C46054601218C
:102AD0002020FEF7C3FE0195ADF800400024104D04
:102AE000ADF80240ADF8084069462846FFF706FBFE
:102AF000012211462846FFF7FBF901212846FFF77E
:102B0000D4F937208DF80C0003208DF80D008DF8D6
:102B10000E4001208DF80F0003A8FEF7AFFD7FBD2A
:102B20000014004010B5FFF7EFFEBDE8104042F280
:102B3000CF010520FFF7C8BF2DE9F04F97B0012165
:102B40000220FEF77FFE01211020FEF79FFE0121EB
:102B50008805FEF777FE5F4F072206213846FEF70D
:102B6000D8F9072211463846FEF7D3F902268DF828
:102B700054600125C0208DF85550002414908DF824
:102B800056408DF8575014A93846FEF771F952484F
:102B90001090ADF848400C20504FADF84440ADF8CF
:102BA0004A00ADF84640ADF84C4010A93846FFF752
:102BB00081FB012280213846FFF735FB01224021AD
:102BC0003846FFF730FB01213846FFF722FB444F20
:102BD0003846FDF7D7FFBB465846FEF765F8002894
:102BE000FAD1402003904FF0006700974FF4806ABD
:102BF0000894CDE9054ADFF8E4803A4808F1040872
:102C00000794CDE90180102004904FF48039CDE97C
:102C100009490B940C940D94694658460E94FEF79E
:102C20007DF8012210215846FEF762F84FF020513E
:102C30005846FDF787FF01215846FDF799FFDFF859
:102C4000A0B0ABF1300B5846FDF79CFF5846FEF79D
:102C50002BF80028FAD12448CDE902040894CDE9E4
:102C6000054A082004900794CDE909490B94CDE961
:102C700000780C940D9469460E945F465846FEF712
:102C80004DF8012210213846FEF732F81749384630
:102C9000FDF758FF01213846FDF76AFF46208DF801
:102CA0003C008DF83D608DF83E408DF83F500FA8F8
:102CB000FEF7E4FC44208DF83C008DF83D608DF873
:102CC0003E408DF83F500FA8FEF7D8FC17B0BDE886
:102CD000F08F00000004024000093D000010014098
:102CE000B8640240940000202C000020000800205E
:102CF0002DE9F04397B001210420FEF7A3FD012147
:102D00008804FEF7ABFD01214805FEF79BFD624EEE
:102D100007220A213046FEF7FCF807220B21304635
:102D2000FEF7F7F803208DF8550000248DF8564083
:102D300001258DF8575002208DF854004FF4406063
:102D4000149014A93046FEF793F8544E3046FDF720
:102D500019FFB1464846FDF7A7FF0028FAD14FF00A
:102D600000675048DFF838810097CDE901804020A6
:102D700006010390CDE90454CDE90664C00208942D
:102D8000CDE90940CDE90B450D94694648460E94BE
:102D9000FDF7C4FF012210214846FDF7A9FF0E20D0
:102DA0008DF83C008DF83D408DF83E408DF83F5049
:102DB0000FA8FEF763FCDFF8E490A9F1300948465C
:102DC000FDF7E0FE4846FDF76FFF0028FAD13648D0
:102DD000CDE9020404A9102081E8510007944FF4C2
:102DE00040300894CDE90940CDE90B45CDE90078A4
:102DF0000D9469464E4648460E94FDF78FFF01211B
:102E00003046FDF7B5FE29481090254EADF84840F4
:102E10000C20ADF84440ADF84A00361FADF84640EE
:102E2000ADF84C4010A93046FFF744FA27208DF842
:102E30003C008DF83D408DF83E508DF83F500FA876
:102E4000FEF71CFC012280213046FFF7ECF901223D
:102E500040213046FFF7E7F9002240F22661304674
:102E6000FFF70FFA002240F225513046FFF709FA2A
:102E7000002240F227713046FFF703FA012240F2A8
:102E800024413046FFF7FDF901213046FFF7C1F933
:102E900017B0BDE8F083000000080240586002400F
:102EA0000448004072000020CC010020A02526002C
:102EB0004FF00000E1EE100A704700000000000033
:102EC000920E493CB10AC93C2BC3163D2EFB483D2E
:102ED000752B7B3D04A9963D80B6AF3D36BDC83D00
:102EE0002FBCE13D73B2FA3D87CF093E8340163EC9
:102EF000B5AB223EA2102F3ECF6E3B3EC2C5473E31
:102F00000115543E135C603E7F9A6C3ECCCF783EF8
:102F1000C07D823E938E883E229A8E3E32A0943EA1
:102F200086A09A3EE59AA03E128FA63ED47CAC3E87
:102F3000EF63B23E2A44B83E491DBE3E15EFC33E84
:102F400053B9C93ECA7BCF3E4136D53E80E8DA3E12
:102F50004F92E03E7533E63EBBCBEB3EEA5AF13E84
:102F6000CBE0F63E275DFC3EE4E7003F3D9C033F9F
:102F7000824B063F9BF5083F6B9A0B3FDA390E3FB9
:102F8000CDD3103F2A68133FD9F6153FC07F183FB5
:102F9000C6021B3FD17F1D3FCBF61F3F9967223FE3
:102FA00025D2243F5636273F1594293F4AEB2B3F25
:102FB000DE3B2E3FBB85303FC9C8323FF304353F6F
:102FC000233A373F4268393F3B8F3B3FF9AE3D3FA5
:102FD00067C73F3F70D8413F01E2433F03E4453FAD
:102FE00065DE473F12D1493FF8BB4B3F029F4D3F43
:102FF000207A4F3F3D4D513F4918533F31DB543FFD
:10300000E595563F5348583F6AF2593F1A945B3F43
:10301000532D5D3F05BE5E3F2146603F97C5613F32
:103020005A3C633F59AA643F880F663FD86B673F9D
:103030003CBF683FA7096A3F0C4B6B3F5E836C3F08
:1030400093B26D3F9ED86E3F73F56F3F0809713F95
:103050005213723F4714733FDD0B743F0BFA743FFA
:10306000C6DE753F07BA763FC58B773FF853783F8A
:103070009812793F9DC7793F02737A3FBE147B3F18
:10308000CDAC7B3F283B7C3FC9BF7C3FAC3A7D3F0A
:10309000CCAB7D3F23137E3FB0707E3F6DC47E3F3F
:1030A000580E7F3F6D4E7F3FAB847F3F0FB17F3F18
:1030B00097D37F3F43EC7F3F11FB7F3F0000803F72
:1030C00011FB7F3F43EC7F3F97D37F3F0FB17F3FA3
:1030D000AB847F3F6D4E7F3F580E7F3F6DC47E3F78
:1030E000B0707E3F23137E3FCCAB7D3FAC3A7D3F3B
:1030F000C9BF7C3F283B7C3FCDAC7B3FBE147B3FB0
:1031000002737A3F9DC7793F9812793FF853783F11
:10311000C58B773F07BA763FC6DE753F0BFA743F23
:10312000DD0B743F4714733F5213723F0809713F20
:1031300073F56F3F9ED86E3F93B26D3F5E836C3FD9
:103140000C4B6B3FA7096A3F3CBF683FD86B673F9A
:10315000880F663F59AA643F5A3C633F97C5613F59
:103160002146603F05BE5E3F532D5D3F1A945B3F95
:103170006AF2593F5348583FE595563F31DB543F7B
:103180004918533F3D4D513F207A4F3F029F4D3FDD
:10319000F8BB4B3F12D1493F65DE473F03E4453F53
:1031A00001E2433F70D8413F67C73F3FF9AE3D3F23
:1031B0003B8F3B3F4268393F233A373FF304353F6B
:1031C000C9C8323FBB85303FDE3B2E3F4AEB2B3F29
:1031D0001594293F5636273F25D2243F9967223F31
:1031E000CBF61F3FD17F1D3FC6021B3FC07F183F5C
:1031F000D9F6153F2A68133FCDD3103FDA390E3F79
:103200006B9A0B3F9BF5083F824B063F3D9C033F6B
:10321000E4E7003F275DFC3ECBE0F63EEA5AF13E94
:10322000BBCBEB3E7533E63E4F92E03E80E8DA3EA4
:103230004136D53ECA7BCF3E53B9C93E15EFC33E9A
:10324000491DBE3E2A44B83EEF63B23ED47CAC3E3C
:10325000128FA63EE59AA03E86A09A3E32A0943EEA
:10326000229A8E3E938E883EC07D823ECCCF783EA1
:103270007F9A6C3E135C603E0115543EC2C5473ECA
:10328000CF6E3B3EA2102F3EB5AB223E8340163E92
:1032900087CF093E73B2FA3D2FBCE13D36BDC83D34
:1032A00080B6AF3D04A9963D752B7B3D2EFB483D76
:1032B0002BC3163DB10AC93C920E493C00000000E8
:1032C000920E49BCB10AC9BC2BC316BD2EFB48BD2A
:1032D000752B7BBD04A996BD80B6AFBD36BDC8BDFC
:1032E0002FBCE1BD73B2FABD87CF09BE834016BEC5
:1032F000B5AB22BEA2102FBECF6E3BBEC2C547BE2D
:10330000011554BE135C60BE7F9A6CBECCCF78BEF4
:10331000C07D82BE938E88BE229A8EBE32A094BE9D
:1033200086A09ABEE59AA0BE128FA6BED47CACBE83
:10333000EF63B2BE2A44B8BE491DBEBE15EFC3BE80
:1033400053B9C9BECA7BCFBE4136D5BE80E8DABE0E
:103350004F92E0BE7533E6BEBBCBEBBEEA5AF1BE80
:10336000CBE0F6BE275DFCBEE4E700BF3D9C03BF9B
:10337000824B06BF9BF508BF6B9A0BBFDA390EBFB5
:10338000CDD310BF2A6813BFD9F615BFC07F18BFB1
:10339000C6021BBFD17F1DBFCBF61FBF996722BFDF
:1033A00025D224BF563627BF159429BF4AEB2BBF21
:1033B000DE3B2EBFBB8530BFC9C832BFF30435BF6B
:1033C000233A37BF426839BF3B8F3BBFF9AE3DBFA1
:1033D00067C73FBF70D841BF01E243BF03E445BFA9
:1033E00065DE47BF12D149BFF8BB4BBF029F4DBF3F
:1033F000207A4FBF3D4D51BF491853BF31DB54BFF9
:10340000E59556BF534858BF6AF259BF1A945BBF3F
:10341000532D5DBF05BE5EBF214660BF97C561BF2E
:103420005A3C63BF59AA64BF880F66BFD86B67BF99
:103430003CBF68BFA7096ABF0C4B6BBF5E836CBF04
:1034400093B26DBF9ED86EBF73F56FBF080971BF91
:10345000521372BF471473BFDD0B74BF0BFA74BFF6
:10346000C6DE75BF07BA76BFC58B77BFF85378BF86
:10347000981279BF9DC779BF02737ABFBE147BBF14
:10348000CDAC7BBF283B7CBFC9BF7CBFAC3A7DBF06
:10349000CCAB7DBF23137EBFB0707EBF6DC47EBF3B
:1034A000580E7FBF6D4E7FBFAB847FBF0FB17FBF14
:1034B00097D37FBF43EC7FBF11FB7FBF000080BF6E
:1034C00011FB7FBF43EC7FBF97D37FBF0FB17FBF9F
:1034D000AB847FBF6D4E7FBF580E7FBF6DC47EBF74
:1034E000B0707EBF23137EBFCCAB7DBFAC3A7DBF37
:1034F000C9BF7CBF283B7CBFCDAC7BBFBE147BBFAC
:1035000002737ABF9DC779BF981279BFF85378BF0D
:10351000C58B77BF07BA76BFC6DE75BF0BFA74BF1F
:10352000DD0B74BF471473BF521372BF080971BF1C
:1035300073F56FBF9ED86EBF93B26DBF5E836CBFD5
:103540000C4B6BBFA7096ABF3CBF68BFD86B67BF96
:10355000880F66BF59AA64BF5A3C63BF97C561BF55
:10356000214660BF05BE5EBF532D5DBF1A945BBF91
:103570006AF259BF534858BFE59556BF31DB54BF77
:10358000491853BF3D4D51BF207A4FBF029F4DBFD9
:10359000F8BB4BBF12D149BF65DE47BF03E445BF4F
:1035A00001E243BF70D841BF67C73FBFF9AE3DBF1F
:1035B0003B8F3BBF426839BF233A37BFF30435BF67
:1035C000C9C832BFBB8530BFDE3B2EBF4AEB2BBF25
:1035D000159429BF563627BF25D224BF996722BF2D
:1035E000CBF61FBFD17F1DBFC6021BBFC07F18BF58
:1035F000D9F615BF2A6813BFCDD310BFDA390EBF75
:103600006B9A0BBF9BF508BF824B06BF3D9C03BF67
:10361000E4E700BF275DFCBECBE0F6BEEA5AF1BE90
:10362000BBCBEBBE7533E6BE4F92E0BE80E8DABEA0
:103630004136D5BECA7BCFBE53B9C9BE15EFC3BE96
:10364000491DBEBE2A44B8BEEF63B2BED47CACBE38
:10365000128FA6BEE59AA0BE86A09ABE32A094BEE6
:10366000229A8EBE938E88BEC07D82BECCCF78BE9D
:103670007F9A6CBE135C60BE011554BEC2C547BEC6
:10368000CF6E3BBEA2102FBEB5AB22BE834016BE8E
:1036900087CF09BE73B2FABD2FBCE1BD36BDC8BD30
:1036A00080B6AFBD04A996BD752B7BBD2EFB48BD72
:1036B0002BC316BDB10AC9BC920E49BC00000080E4
:1036C000E03600080000002084000000C40100086B
:1036D0006437000884000020BC070000E0010008F7
:1036E00000000000000000000000000000000000DA
:1036F00000000000000000000000000000000000CA
:1037000000000000000000000000000000000000B9
:1037100000000000000000000000000000000000A9
:103720000000000000000000000000000000000099
:103730000000000000000000000000000000000089
:103740000000000000000000000000000000000079
:103750000000000000000000010203040102030455
:043760000607080947
:040000050800018965
:00000001FF
